:100000000C9438200C9469200C9469200C9469207D
:100010000C9469200C9469200C9469200C9469203C
:100020000C9469200C9469200C9469200C9469202C
:100030000C9469200C9469200C9469200C9469201C
:100040000C9469200C9494FF0C9469200C94692002
:100050000C9469200C9469200C94ECD20D94C20F7E
:100060000C9469200C9498410C948E410C94692056
:100070000C9469200C9469200C9469200C946920DC
:100080000C9469200C9469200C9469200C946920CC
:100090000C9469200C9469200C9469200C946920BC
:1000A0000C9469200C9469200C9469200C946920AC
:1000B0000C9469200C9469200C9469200C9469209C
:1000C0000C9469200C9469200C9469200C9469208C
:1000D0000C9469200C9469200C9469200C9469207C
:1000E0000C9469206B80DA7E137FA780137F137FC7
:1000F000137F137F137F137F137F137F137F137F70
:10010000137F137F137F137F137F137F137F137F5F
:10011000137F137F137F137F137F137F137F137F4F
:10012000A180137F137F137F137F137F137F137FB0
:10013000137F7A80137F137F137F137F137F137FC7
:10014000137F137F137F137FBE80107F6DB170B15B
:1001500074B177B17AB1A4B17EB181B185B188B102
:100160008BB18FB192B195B1A4B199B19CB19FB14E
:100170000FD631D651D676D69BD652D8C0D6E3D636
:1001800006D72BD750D775D79AD7BFD752D8E4D731
:1001900009D82ED868FB6BFB5AFB5EFB64FBA2FB05
:1001A0006FFB73FB79FB7DFB81FB87FB8BFB8FFB7D
:1001B000A2FB95FB99FB9DFB6CFC71FC76FC80FC23
:1001C0008AFC03FD94FC9CFCA4FCAEFCB8FCC2FCC5
:1001D000D1FCDBFC03FDE5FCEFFCF9FC084AD73B56
:1001E0003BCE016E84BCBFFDC12F3D6C74319ABD06
:1001F00056833DDA3D00C77F11BED9E4BB4C3E912A
:100200006BAAAABE000000803F05A84CCDB2D44E18
:10021000B93836A9020C50B9918688083CA6AAAA1A
:100220002ABE000000803F000D94CD160C94444B74
:100230000C9499B10C948BE60C9409D80C9494FC12
:100240000C9472E40C94709B0C9464FB0C940997CE
:100250000C9476D60C94F8840C94557E0C943485CA
:100260000C9438DD0C943D850C9495FB0C946CFC3F
:100270000D94E7160C94D2950C949CB10C947DFBD4
:100280000C945A850C9451D60C9468FB0C94D6DFD0
:100290000C9470B10C942CE30C94A9DC0C94ABE39B
:1002A0000C94A1800C949CFC0C948FB10C94F35290
:1002B0000C948AE30C94AEFC0C942CDD0C94B2F6F6
:1002C0000C9481FB0C94E2970C94EFFC0C94A780A7
:1002D0000C944DDD0C946BFB0C94B3950C9489E657
:1002E0000C94B1E30C9499FB0C94BFD70C948C88BC
:1002F0000C9493E30C9471FC0C94F0DC0C94DBFCF8
:100300000C949C4B0C9458850C9431D60C945EFB49
:100310000C94B1950C946DEC0C94E3D60C9405768A
:100320000C94FECE0C94587E0C9450850C947EB1A7
:100330000C94C2FC0C94107F0C946DB10C94C84BBF
:100340000C9473FB0C94299A0C9432E40C945EE3A5
:100350000C9474B10C949DFB0C9452D80C943FEC0B
:100360000C946B800C94DC520C9499E30C9416E979
:100370000C946E4B0C949D810C942AE00C948BB1E0
:100380000C94A5E30C94A4FC0C94DA7E0C945B7E94
:100390000C9412E90C9434530C949BD60C94C0D654
:1003A0000C9432E00C947A800C9435E10C94308AF1
:1003B0000C94B2E40C94A4B10C941B850C9443DD12
:1003C0000C94C1E80C94A2E60C94137F0C94545442
:1003D0000C9448DD0C9471E30C9427E90C9400E331
:1003E0000C94E5FC0C948FFB0C948FE60C9485B177
:1003F0000C9480C10C946A7E0C9492B10C94DCF63F
:100400000C94D1DF0C942FE90C9473E50C94C55235
:100410000C9423E40C94C7DF0C9495B10C9432DD5A
:100420000C948AFC0C9426DD0C94B7E30C94BE80EB
:100430000C949FE30C949AD70C94CCDF0C945685C3
:100440000C9403FD0C949FB10C9419E30C94E3E31A
:100450000C942ED80C9450D70C940FD60C94709604
:100460000C9476FC0C94C8E30C94EB560C948BFB28
:100470000C942BD70C9445E30C9471DD0C94B3854C
:100480000C94F9FC0C94AC850C94B1F60C9488B1E6
:100490000C9479FB0C943EF70C943EDD0C945AFBC3
:1004A0000C9480FC0C94B5F60C94D1FC0C9475D78C
:1004B0000C94E8DC0C9487FB0C9481B10C942BE930
:1004C0000C94D7860C9452DD0C946FFB0C947AB18B
:1004D0000C94BDE30C948DE60C9477B10C94E7E298
:1004E0000C94D7E30C94B8FC0C94E4D70C9406D786
:1004F0000C94A2FB4E414E494E495459494E46CDAB
:10050000CCCC3D0AD7233C17B7D13877CC2B3295CA
:1005100095E6241FB14F0A000020410000C84200A8
:10052000401C4620BCBE4CCA1B0E5AAEC59D740072
:10053000407A10F35A00A0724E18090010A5D4E8B2
:100540000000E87648170000E40B54020000CA9A45
:100550003B000000E1F50500008096980000004097
:10056000420F000000A086010000001027000000DC
:1005700000E803000000006400000000000A000022
:100580000000000100000000002C76D888DC674FD6
:100590000823DFC1DFAE59E1B1B796E5E3E453C606
:1005A0003AE651997696E8E6C28426EB898C9B62FE
:1005B000ED407C6FFCEFBC9C9F40F2BAA56FA5F4A8
:1005C00090055A2AF75C936B6CF9676DC11BFCE0D0
:1005D000E40D47FEF520E6B500D0ED902E03009423
:1005E0003577050080841E080000204E0A000000B8
:1005F000C80C333333330F986E12831141EF8D21C2
:1006000014893BE65516CFFEE6DB18D1844B381B28
:10061000F77C1D901DA4BBE424203284725E2281ED
:1006200000C9F124ECA1E53D27434F4D4D554E49FE
:10063000434154494F4E0044525952554E00455281
:10064000524F525300494E464F004543484F0053C6
:100650006C6565702E2E2E005A2050726F626520D8
:1006600050617374204265640A005A2050726F62B0
:1006700065205061737420426564004D6573682085
:10068000706F696E74206F7574206F662072616E72
:1006900067650A00436C69636B20746F2052657351
:1006A000756D652E2E2E004E6F204D6F76652E00D7
:1006B000456E642066696C65206C6973740A00423B
:1006C0006567696E2066696C65206C6973740A00E1
:1006D0004E6F206D656469610A00286E6F2066693F
:1006E0006C65290043757272656E742066696C656D
:1006F0003A20005344207072696E74696E672062FC
:1007000079746520004E6F74205344207072696EB6
:1007100074696E670A0044656C6574696F6E206663
:1007200061696C65642C2046696C653A20004669F5
:100730006C652064656C657465643A002569792090
:10074000256964202569682025696D202569730065
:100750005072696E742074696D653A2000496E7636
:10076000616C69642050696E204D6F64650A006F8A
:1007700066660044454255473A004D3131322053B8
:10078000687574646F776E004D31313320530053B8
:100790006865657079204D696E69204F46462E0068
:1007A0004348414D4245525F54454D504552415496
:1007B00055524500424142595354455050494E47C5
:1007C0000041524353004D4F54494F4E5F4D4F44EB
:1007D000455300544845524D414C5F50524F54458B
:1007E0004354494F4E004C4F4E475F46494C454E8F
:1007F000414D45004155544F5245504F52545F535F
:10080000445F5354415455530053444341524400B0
:1008100050524F4D50545F535550504F5254004515
:100820004D455247454E43595F5041525345520042
:10083000434153455F4C494748545F4252494748FA
:10084000544E45535300544F47474C455F4C49471E
:1008500048545300534F4654574152455F504F57E9
:100860004552004255494C445F50455243454E5411
:10087000004C4556454C494E475F44415441005A4F
:100880005F50524F42450052554E4F55540041550E
:10089000544F4C4556454C005052494E545F4A4FB8
:1008A000420050524F4752455353004155544F5206
:1008B00045504F52545F54454D5000564F4C554D86
:1008C00045545249430042494E4152595F46494CB2
:1008D000455F5452414E534645520053455249419B
:1008E0004C5F584F4E5F584F4646004649524D5751
:1008F0004152455F4E414D453A4D61726C696E20E3
:10090000322E302E372E3220284A616E203331208D
:10091000323032312031333A35353A3233292053AF
:100920004F555243455F434F44455F55524C3A68DB
:10093000747470733A2F2F6769746875622E636FD1
:100940006D2F4D61726C696E4669726D776172656B
:100950002F4D61726C696E2050524F544F434F4C73
:100960005F56455253494F4E3A312E30204D414348
:1009700048494E455F545950453A5368656570790A
:10098000204D696E692045585452554445525F4385
:100990004F554E543A3120555549443A6365646584
:1009A000326132662D343161322D343734382D398D
:1009B0006231322D633535633632663336376666DB
:1009C0000A002F2F20004D31343520533C696E64CE
:1009D00065783E206F7574206F662072616E676562
:1009E0002028302D31290A00416363656C657261EE
:1009F00074696F6E3A2050003F4A206F7574206F03
:100A0000662072616E67652028302E303120746F49
:100A100020302E33290A0020204D61783A20002012
:100A2000204D696E3A2000536F667420656E6473C2
:100A3000746F70733A200046523A0020466C6F770C
:100A40003A200050726F7465637465642050696E5B
:100A50000A0050726F6265204F6666736574205A93
:100A60000020643A0020693A0020703A00496E760E
:100A7000616C69642065787472756465720A0064DB
:100A800069730043290A0061626C656420286D69FE
:100A90006E2074656D702000436F6C6420657874FF
:100AA00072756465732061726520004D34323120A7
:100AB000696E636F727265637420706172616D65D7
:100AC0007465722075736167650A004F66667365A9
:100AD0007473204170706C696564004572723A20CD
:100AE000546F6F206661722100546F6F20666172CF
:100AF0002066726F6D207265666572656E63652033
:100B0000706F696E740A00454550524F4D204F4B2F
:100B10000A00446F6E65207072696E74696E67209A
:100B200066696C650A004D3737004D3331004A065F
:100B300045063E06370629064572726F72207772A7
:100B40006974696E6720746F20454550524F4D217E
:100B50000A004D343130004D313132004D313038E2
:100B60000053544F505045442E20005072696E740B
:100B700065722073746F707065642064756520748D
:100B80006F206572726F72732E20466978207468C8
:100B900065206572726F7220616E642075736520C6
:100BA0004D39393920746F20726573746172742EF7
:100BB000202854656D706572617475726520697363
:100BC0002072657365742E205365742069742061EA
:100BD000667465722072657374617274696E6729D8
:100BE0000A004E6F20436865636B73756D207769EB
:100BF0007468206C696E65206E756D6265722C205C
:100C00004C617374204C696E653A200063686563BB
:100C10006B73756D206D69736D617463682C204C06
:100C2000617374204C696E653A20004C696E6520D2
:100C30004E756D626572206973206E6F74204C6111
:100C40007374204C696E65204E756D6265722B3130
:100C50002C204C617374204C696E653A20004D3134
:100C600031300053442072656164206572726F7286
:100C70000A002121204B494C4C2063617573656447
:100C8000206279204B494C4C20627574746F6E2F32
:100C900070696E0A002121204B494C4C206361751C
:100CA00073656420627920746F6F206D75636820AE
:100CB000696E6163746976652074696D65202D20A5
:100CC00063757272656E7420636F6D6D616E643AE8
:100CD0002000627573793A207061757365642066CF
:100CE0006F7220696E7075740A00627573793A20AC
:100CF00070617573656420666F7220757365720A22
:100D000000627573793A2070726F63657373696EF0
:100D1000670A004D656469612052656D6F76656490
:100D2000004D6564696120496E7365727465640085
:100D3000506C65617365205265736574005052494B
:100D40004E5445522048414C5445440025533A20C6
:100D50002553004B494C4C45442E20005072696E7F
:100D60007465722068616C7465642E206B696C6CAC
:100D700028292063616C6C6564210A006563686FD3
:100D80003A004572726F723A0042696C696E656131
:100D900072204C6576656C696E6720477269643AAB
:100DA0000A00363726023C3D380E2E303E121A1C01
:100DB000180AFF43090844000124F4D43050C38EBC
:100DC00020C2A24017828B7011127A910D816CD9CA
:100DD0000AA861E108C7586607615143061E4B5DCA
:100DE00005C145A7041A411104093D980371393121
:100DF000034036DB0265339102D4305402802E1D4D
:100E000002632CEE01752AC501B028A001102781CC
:100E1000018F2564012B244B01E0223401AC211FFA
:100E2000018D200D01801FFC00841EED00971DDF49
:100E300000B81CD200E61BC600201BBC00641AB21E
:100E400000B219A8000A19A0006A189900D11791D8
:100E50000040178B00B516840031167E00B315795B
:100E6000003A157300C7146F0058146A00EE136639
:100E7000008813630025135E00C7125B006C1257D5
:100E80000015125400C111510070114F0021114B77
:100E900000D61049008D1047004610440002104251
:100EA00000C00F4000800F3E00420F3C00060F3B89
:100EB00000CB0E3800930E37005C0E3500270E3441
:100EC00000F30D3200C10D3100900D3000600D2E89
:100ED00000320D2D00050D2C00D90C2B00AE0C2975
:100EE00000850C29005C0C2700350C27000E0C2611
:100EF00000E80B2400C40B2400A00B23007D0B236F
:100F0000005A0B2100390B2100180B2000F80A1F92
:100F100000D90A1E00BB0A1E009D0A1D00800A1D82
:100F200000630A1C00470A1B002C0A1B00110A1A46
:100F300000F7091A00DD091900C4091900AB0919E5
:100F400000920917007B091800630917004C091665
:100F50000036091600200916000A091500F50815C3
:100F600000E0081400CC081400B8081400A4081409
:100F700000900813007D0812006B08130058081237
:100F8000004608120034081100230811001208114D
:100F90000001081100F0071000E0071000D0071052
:100FA00000C0071000B0070F00A107100091070E46
:100FB0000083070F0074070F0065070E0057070E28
:100FC0000049070E003B070D002E070E0020070DFD
:100FD0000013070D0006070D00F9060C00ED060DC5
:100FE00000E0060C00D4060C00C8060C00BC060C81
:100FF00000B0060C00A4060B0099060C008D060B31
:101000000082060B0077060B006C060B0061060AD7
:101010000057060B004C060A0042060A0038060A72
:10102000002E060A0024060A001A060A0010060905
:101030000007060A00FD050900F4050900EB050993
:1010400000E2050900D9050900D0050900C7050916
:1010500000BE050900B5050800AD050800A5050995
:10106000009C050800940508008C0508008405080C
:10107000007C050800740508006C0507006505087C
:10108000005D050700560508004E050700470507E7
:10109000004005080038050700310507002A05074C
:1010A00000230507001C050600160507000F0507AD
:1010B000000805060002050700FB040600F504070A
:1010C00000EE040600E8040600E2040700DB040664
:1010D00000D5040600CF040600C9040600C30406B8
:1010E00000BD040600B7040600B1040500AC040608
:1010F00000A6040600A00405009B04060095040554
:1011000000900406008A040500850405008004069A
:10111000007A04050075040500700405006B0405E1
:101120000066040500610405005C04050057040521
:1011300000520405004D0405004804050043040561
:10114000003E0404003A04050035040500300404A0
:10115000002C04050027040400230405001E0404D9
:10116000001A04040016040500110404000D040410
:1011700000090405000404040000040400FC030446
:1011800000F8030400F4030400F0030400EC03047B
:1011900000E8030400E4030400E0030400DC0304AB
:1011A00000D8030400D4030400D0030400CC0304DB
:1011B00000C8030300C503030024F404D9201BC4A2
:1011C0000C5C0E9804C4095F0265077101F405F90F
:1011D00000FB04B30048048700C1036900580355AD
:1011E0000003034500BE023A008402310053022A84
:1011F000002902250004022000E4011C00C8011996
:1012000000AF011700980114008401130071011050
:10121000006101100051010E0043010D0036010B69
:10122000002B010B0020010B00150109000C010926
:101230000003010800FB000800F3000800EB0007B2
:1012400000E4000600DE000600D8000600D200061A
:1012500000CC000500C7000500C2000500BD000469
:1012600000B9000400B5000400B1000400AD0004A2
:1012700000A9000400A5000300A20003009F0004D1
:10128000009B0003009800030095000200930003F8
:1012900000900003008D0002008B00030088000214
:1012A000008600020084000300810002007F00022B
:1012B000007D0002007B000200790002007700013F
:1012C000007600020074000200720001007100024A
:1012D000006F0002006D0001006C0002006A000156
:1012E000006900020067000100660001006500015E
:1012F0000064000200620001006100010060000162
:10130000005F0002005D0001005C0001005B000165
:10131000005A000100590001005800010057000167
:101320000056000100550001005400010053000068
:101330000053000100520001005100010050000163
:10134000004F0001004E0000004E0001004D000162
:10135000004C0001004B0000004B0001004A00015E
:10136000004900010048000000480001004700015A
:101370000046000000460001004500000045000155
:10138000004400010043000000430001004200004F
:101390000042000100410000004100010040000146
:1013A000003F0000003F0001003E0000003E000141
:1013B000003D0000003D0001003C0000003C00003A
:1013C000003C0001003B0000003B0001003A00002F
:1013D000003A000100390000003900010038000027
:1013E000003800000038000100370000003700011D
:1013F0000036000000360000003600010035000015
:101400000035000000350001003400000034000009
:1014100000340001003300000033000000330001FD
:1014200000320000003200000032000100310000F4
:1014300000310000003100010030000000300000E9
:1014400000300001002F0000002F0000002F0000DE
:10145000002F0001002E0000002E0000002E0001D1
:10146000002D0000002D0000002D0000002D0001C7
:10147000002C0000002C0000002C0000002C0001BB
:10148000002B0000002B0000002B0000002B0001AF
:10149000002A0000002A0000002A0000002A0001A3
:1014A0000029000000290000002900000029000098
:1014B000002900010028000000280000002800008A
:1014C000002800000028000100270000002700007D
:1014D0000027000000270000002700010026000070
:1014E0000026000000260000002600000026000163
:1014F0000025000000250000002500000025000058
:101500000025000000250001002400000024000048
:10151000002400000024000000240001002300003B
:10152000002300000023000000230000002300002F
:101530000023000000230001002200000022000020
:101540000022000000220000002200000022000112
:101550000021000000210000002100000021000007
:1015600000210000002100000021000100200000F7
:1015700000200000002000000020000000200000EB
:10158000002000000020000000200001001F0000DB
:10159000001F0000001F0000001F0000001F0000CF
:1015A000001F0000001F0001001E0000001E0000C0
:1015B000001E0000001E000000393000003325002E
:1015C0000087190000B00F0000DB080000BD040018
:1015D00000740200003F0100001FFFFFFFFFFFFF3C
:1015E000600000000001FF400000000000FF8000DC
:1015F000000000007F83CF00000C303F87FF800099
:101600000C301F867980000C000F8C30C7838C3023
:10161000E78C30CFC7CC31F38C30DCECEC33B98CB9
:1016200030D86C6C33198C30D06C0C33198C30D8AA
:101630006C0C33198C30DC6C0E3B198C30CF7C0772
:101640009F198C30C77C038F1940000000000002F6
:10165000600000000000061FFFFFFFFFFFF81FFFF4
:10166000FFFFFFFFFF600000000001FF40000000DF
:101670000000FF8000000000007F83CF00000C30DE
:101680003F87FF80000C301F867980000C000F8C94
:1016900030C7838C30078C30CFC7CC30038C30DC24
:1016A000ECEC30018C30D86C6C30018C30D06C0C90
:1016B00030018C30D86C0C30018C30DC6C0E380171
:1016C0008C30CF7C079C018C30C77C038C014000A0
:1016D0000000000002600000000000061FFFFFFF86
:1016E000FFFFF81FFFFFFFFFFFFF6000000000018A
:1016F000FF400000000000FF8000000000007F832A
:10170000CF00000C003F87FF80000C001F8679800F
:10171000000C000F8C30C7838C00078C30CFC7CCF7
:1017200000038C30DCECEC00018C30D86C6C0001D8
:101730008C30D06C0C00018C30D86C0C00018C30DB
:10174000DC6C0E00018C30CF7C0780018C30C77CB4
:101750000380014000000000000260000000000063
:10176000061FFFFFFFFFFFF81FFFFFFFFFFFFF60E8
:101770000000000001FF400000000000FF800000AA
:101780000000007F83CF000000003F87FF80000043
:10179000001F8679800000000F8C30C7838000070F
:1017A0008C30CFC7C000038C30DCECE000018C3003
:1017B000D86C6000018C30D06C0000018C30D86C8B
:1017C0000000018C30DC6C0000018C30CF7C00000C
:1017D000018C30C77C000001400000000000026066
:1017E0000000000000061FFFFFFFFFFFF81FFFFFC4
:1017F000FFFFFFFF600000000001FF40000000004D
:1018000000FF8000000000007F83CF000000003F49
:1018100087FF800000001F8679800000000F8C3059
:10182000C7800000078C30CFC00000038C30DCE0A4
:101830000000018C30D8600000018C30D0600000C6
:10184000018C30D8600000018C30DC600000018C1D
:1018500030CF700000018C30C770000001400000E4
:1018600000000002600000000000061FFFFFFFFFF5
:10187000FFF81FFFFFFFFFFFFF600000000001FFF8
:10188000400000000000FF8000000000007F83CFC8
:10189000000000003F87FF800000001F8679800065
:1018A00000000F8C30C0000000078C30C00000002A
:1018B000038C30C0000000018C30C0000000018C9F
:1018C00030C0000000018C30C0000000018C30C02E
:1018D000000000018C30C0000000018C30C000000E
:1018E000000140000000000002600000000000064F
:1018F0001FFFFFFFFFFFF81FFFFFFFFFFFFF60005D
:1019000000000001FF400000000000FF8000000018
:1019100000007F8000000000003F80000000000009
:101920001F8000000000000F800000000000078002
:1019300000000000000380000000000001800000A3
:101940000000000180000000000001800000000095
:101950000001800000000000018000000000000184
:101960008000000000000140000000000002600054
:1019700000000000061FFFFFFFFFFFF8FFFFFFFF53
:10198000FFFFFFFFFFFFFFFFFFFFFFFFFFFFFFFF67
:10199000FFFFFFFFFFFFFFFFFFFFFFFFFFFFFFFF57
:1019A000FFFFFFFFFFFFFFFFFFFFFFFFFFFFFFFF47
:1019B000FFFFFFFFFFFFFFFFFFFFFFFFFFFFFFFF37
:1019C000FFFFFFFFFF07FFFFFFFFFFFFFFFFFFFF1F
:1019D000FFFFFF0000001FFFFFFFFFFFFFFFFFFFF4
:1019E000FFFFE000000001FFFFFFFFFFFFFFFFFF21
:1019F000FFFE00000000001FFFFFFFFFFFFFFFFFD3
:101A0000FFF800000000000FFFFFFFFFFFFFCC9F6B
:101A1000FF800000000000001FFFFFFFFFFC000030
:101A2000000000000000000003FFFFFFFFF80000BF
:101A30000000000000000000000001FFFFF80000AF
:101A400000000000000000000000007FFFFE00001A
:101A500000000000000000000000000FFFFFC000B9
:101A600000000000000000000000001FFFFFFFA0BA
:101A700000000000000000000000003FFFFFFFFF2B
:101A8000E000000000000000000000FFFFFFFFFF7B
:101A9000C00000000000000000003FFFFFFFFFFF4C
:101AA000E00000000001C00000FFFFFFFFFFFFFF9C
:101AB000E00000000007F80001FFFFFFFFFFFFFF4D
:101AC000E00000000007FC0003FFFFFFFFFFFFFF37
:101AD000E40000000007FC0007FFFFFFFFFFFFFF1F
:101AE000F9000FC00001F0000FFFFFFFFFFFFFFF35
:101AF000FE003FF0000000000FFFFFFFFFFFFFFFB1
:101B0000FF807FF0000000001FFFFFFFFFFFFFFFCF
:101B1000FF803FE0000000007FFFFFFFFFFFFFFFAF
:101B2000FFF00FC000000000FFFFFFFFFFFFFFFFFF
:101B3000FFF8000000000001FFFFFFFFFFFFFFFFB5
:101B4000FFFC0000000000009FFFFFFFFFFFFFFF02
:101B5000FFF000000000000003FFFFFFFFFFFFFF9A
:101B6000FFE000000000000000FFFFFFFFFFFFFF9D
:101B7000FF00000000000000007FFFFFFFFFFFFFED
:101B8000F000000000000000003FFFFFFFFFFFFF2C
:101B9000C0000000000000000007FFFFFFFFFFFE85
:101BA00000000000000000000001FFFFFFFFFFF049
:101BB000000000000000000000007FFFFFFFFF802A
:101BC000000000000000000000000FFFFFFFFF000A
:101BD000000000000000000000000FFFFFFFFC00FD
:101BE0000000000000000000000007FFFFFFF00001
:101BF0000000000000000000000003FFFFFFF000F5
:101C00000000000000000000000007FFFFFF800050
:101C1000000000000000000000000FFFFFFF0000B8
:101C2000000000000000000000001FFFFFFC00009B
:101C3000000000000000000000013FFFFFF0000076
:101C4000000000000000000000017FFFFFC0000056
:101C500000000000000000000003FFFFFFF0000094
:101C600000000000000000000000FFFFFFFE000079
:101C700000000000000000000000FFFFFFFFC000A8
:101C800000000000000000000001FFFFFFFFE00077
:101C900000000000000000000000FFFFFFFFFFFF4A
:101CA000FFFF0000000000000000FFFFFFFFFFFF3C
:101CB000FFFE00000000000000007FFFFFFFFFFFAD
:101CC000FFFC0000000000000001FFFFFFFFFFFF1E
:101CD000FFFE0000000000000001FFFFFFFFFFFF0C
:101CE000FFFE0000007F80000003FFFFFFFFFFFFFB
:101CF000FFFF000000FFE0000003FFFFFFFFFFFF0A
:101D0000FFFF800003FFF8000007FFFFFFFFFFFF5A
:101D1000FFFFFF000FFFFC000007FFFFFFFFFFFFBB
:101D2000FFFFFFF0FFFFFE00001FFFFFFFFFFFFFB1
:101D3000FFFFFFFFFFFFFF00007FFFFFFFFFFFFF31
:101D4000FFFFFFFFFFFFFFF800FFFFFFFFFFFFFFA9
:101D5000FFFFFFFFFFFFFFFFFFFFFFFFFFFFFFFF93
:101D6000FFFFFFFFFFFFFFFFFFFFFFFFFFFFFFFF83
:101D7000FFFFFFFFFFFFFFFFFFFFFFFFF7187218D6
:101D8000ED176817E3165E16D91570012C01900146
:101D90002701B0012201C0011D01F001180110024C
:101DA000130130020E016002090190020401C00219
:101DB000FF000003FA004003F5008003F000D003A9
:101DC000EB002004E6007004E100E004DC004005C4
:101DD000D700C005D2004006CD00D006C80080075D
:101DE000C3003008BE00F008B900C009B400B00A52
:101DF000AF00B00BAA00D00CA500000EA000500F41
:101E00009B00C01096005012910000148C00C01569
:101E10008700B0178200B0197D00D01B7800001E2B
:101E2000730040206E0090226900F0246400402777
:101E30005F0090295A00E02B5500102E50002030F2
:101E40004B0010324600E033410090353C00103723
:101E5000370070383200A0392D00B03A2800A03B7E
:101E60002300603C1E00103D1900903D1400103E00
:101E70000F00703E0A00C03E0500003F0000403FDA
:101E8000FBFF803FF6FFC03FF1FF68747470733A48
:101E90002F2F6D61726C696E66772E6F72670032DC
:101EA0002E302E372E32002020506C616E6E6572FF
:101EB00042756666657242797465733A2000204601
:101EC000726565204D656D6F72793A2000436F6DC4
:101ED00070696C65643A204A616E2033312032307B
:101EE00032310A00204C617374205570646174654E
:101EF000643A20323032302D31302D3135207C2083
:101F0000417574686F723A20284A696D6D797468FA
:101F1000657368656570290A00322E302E372E32BF
:101F20000A004D61726C696E0020536F66747761B0
:101F300072652052657365740A0020576174636886
:101F4000646F672052657365740A002042726F7770
:101F50006E206F75742052657365740A0020457891
:101F60007465726E616C2052657365740A00506FFF
:101F700077657255700A006175746F25632E67006E
:101F80004732385859004D31303031006572726F28
:101F9000722077726974696E6720746F2066696C4D
:101FA000650A00446F6E6520736176696E6720660E
:101FB000696C652E0A004D323900255320256320B7
:101FC000256320256320256300656E6473746F703C
:101FD00073206869743A20002053697A653A2000BA
:101FE00043616E6E6F74206F70656E2073756264EE
:101FF00069722000534420496E6974204661696CFF
:102000000053442063617264206F6B0A006F706537
:102010006E526F6F74206661696C65640A00766F3A
:102020006C756D652E696E6974206661696C656496
:102030000A004E6F20534420636172640A004D32DF
:1020400034004D3233202573006F70656E20666159
:10205000696C65642C2046696C653A200046696CA1
:10206000652073656C65637465640A0046696C6518
:10207000206F70656E65643A2000454E44205355CC
:1020800042524F5554494E450A002220706F73004A
:102090002220706172656E743A2200535542524F8D
:1020A0005554494E452043414C4C2074617267653C
:1020B000743A220053756263616C6C204F766572CE
:1020C000666C6F77004578636565646564206D6153
:1020D0007820535542524F5554494E4520646570FF
:1020E00074683A310A0057726974696E6720746FB8
:1020F0002066696C653A2000667265736800646FDB
:10210000696E67004E6F77200046696C2E20446927
:10211000612E004520696E206D6DC2B3004D3330D5
:102120003320553120452569205325690050494405
:10213000204175746F74756E65202A005049442DD6
:1021400044202A005049442D49202A005049442D5A
:1021500050202A0020082046616374002008204D8A
:102160006178002008204D696E004175746F7465B8
:102170006D700053657474696E67732053746F7269
:102180006564002062797465733B2063726320008C
:1021900053657474696E67732053746F726564203D
:1021A0002800454550524F4D206461746173697A2F
:1021B00065206572726F722E0A002073746F7265EB
:1021C000642073657474696E6773207265747269D4
:1021D00065766564202800202863616C63756C61F6
:1021E00074656429210A0020213D20004545505294
:1021F0004F4D20435243206D69736D6174636820B5
:102200002D202873746F726564292000496E6465FF
:10221000783A200044494749504F5453204C6F614D
:102220006465640A0044494749504F5453204C6F39
:102230006164696E670A00204D61726C696E3D567B
:102240003832290A00454550524F4D207665727349
:10225000696F6E206D69736D6174636820284545F0
:1022600050524F4D3D0020746F6F206C6F6E672091
:10227000657874727573696F6E2070726576656EBD
:102280007465640A0020636F6C64206578747275ED
:1022900073696F6E2070726576656E7465640A008E
:1022A000DB0FC93F45BCDA3F8FB30240FCF027404B
:1022B00056946140FE4B9B4084A5D840E0231841D2
:1022C000346A5641E859974164DBD5416E2717427D
:1022D000B4B75542CE1A9742C8AED542B5885A43D4
:1022E000D40684BFA65FA7BF7443E0BF10B11AC075
:1022F0001C2C58C0E8F697C0B849D6C04E4E17C13E
:1023000024D355C1802497C1A0B5D5C1121A17C2D4
:1023100044AE55C2781797C26CACD5C267885AC311
:102320001FE03FF03FF03FF01FE01FE03FF03FF0C5
:102330003FF00FC0078003001FE020102010201086
:10234000102010202010201030300840048003009E
:1023500001FF000618C0081F20101F90141F102E28
:102360001E082F1C082FB8083FFC083FFFF8207FED
:10237000F8203BE82071E820F0E811F05013F0104D
:1023800009F0200630C001FF0001FF000630C0093F
:10239000F02011F01010F01020F0682031E8203902
:1023A000E8207FF83FFFF83FFC082F38082E180878
:1023B0002C1E08101E10101F10081F200618C00128
:1023C000FF0001FF000600C00901201783D017831A
:1023D000D02FC7E827C7C821FF08207C08207C0829
:1023E000207C0821FF0827C7C82FC7E81783D0170C
:1023F00083D00901200600C001FF00FFFFC040009C
:102400002020001010000808000404000203FFFF51
:10241000022200044400044400022200011100FFD3
:10242000FFC04088A02111101222080800040400F7
:102430000203FFFF0000000001FFFC0002000E008D
:1024400002000900027FC880020008400200082044
:1024500002000FF0020000200200002002FF7FA017
:102460000200002002FF7FA00200002002FF7FA0E8
:1024700002000020020000200200002002003320A1
:10248000020F7B20020C3320020F33200203332083
:1024900002673B20026E1B20020000200200002089
:1024A00001FFFFC02568753A253032687500256840
:1024B00075642025303268753A2530326875002001
:1024C00020202020202000456E636C6F737572659C
:1024D000004D3834004175746F20486F6D650054AD
:1024E000656D7065726174757265004D5820536931
:1024F0006C6B20504C41004D5820504554470065AE
:1025000053554E20504C412B0050726F6265205A3B
:10251000204F6666736574004D61696E004469738F
:1025200061626C65205374657070657273004D3420
:10253000382050726F6265205465737400473238DA
:10254000204F0A4D34382050313000473238005087
:10255000726568656174202420456E640050726560
:102560006865617420242042656400436F6F6C6469
:102570006F776E0050726568656174202400466153
:102580006E205370656564004E6F7A7A6C65004604
:102590006C6F7700FF24F724EB246F70656E005496
:1025A0005249474745524544007A5F6D696E00794C
:1025B0005F6D696E00785F6D6178005265706F7253
:1025C00074696E6720656E6473746F7020737461D4
:1025D0007475730A00486F6D652025732573257324
:1025E00020466972737400486F6D696E672046619A
:1025F000696C6564005761726E696E673A20486F56
:102600006D696E672042756D702044697669736FDD
:1026100072203C20310A0020456E6473746F703F55
:102620000A00426164200000000C4300000000002A
:1026300000000000004842000048420000804002C4
:1026400002040000A0400000A04000000040000084
:102650001A430000DC420000F04201FFFF4C6F61B2
:10266000642053657474696E67730053746F726588
:102670002053657474696E677300416476616E639C
:1026800065642053657474696E677300436F6E668A
:10269000696775726174696F6E00526573746F72E9
:1026A000652044656661756C747300313235004293
:1026B00045443A204550434F53203130304B00526F
:1026C000756E617761792057617463683A204F4E67
:1026D000004D61782054656D7000323735004D69CA
:1026E0006E2054656D70002D350045313A204550FF
:1026F000434F53203130304B005053550047656EE7
:10270000657269630050726F746F636F6C00312E75
:102710003000426175640031313532303000524151
:102720004D505320312E340042696C696E656172E0
:10273000204C6576656C696E6700457874727564C7
:1027400065727300536865657079204D696E690024
:10275000323032302D31302D313500546865726D94
:102760006973746F727300426F61726420496E66A0
:102770006F005072696E74657220496E666F005307
:10278000746F70004368616E6765204D65646961B0
:10279000004D32310041626F7574205072696E7461
:1027A000657200526573756D65205072696E7400B4
:1027B0004E6F204D656469610054756E65005374F9
:1027C0006F70205072696E7400506175736520508F
:1027D00072696E7400496E666F2053637265656E30
:1027E000007C3C3E5E2B3D3F2F5B5D3B2C2A225CF8
:1027F000004F46460A00466164652048656967687F
:10280000742000426564204C6576656C696E6720B3
:10281000004661696C656420746F20656E61626C4E
:102820006520426564204C6576656C696E670A00B8
:10283000496E76616C6964206D6573682E0A00507C
:10284000726F62696E6720506F696E740025532045
:1028500025692F25690050726F62696E67206D656A
:10286000736820706F696E7420002028445259529A
:10287000554E2900473239204175746F20426564F6
:10288000204C6576656C696E67003F20284C2C52A1
:102890002C462C4229206F7574206F6620626F755C
:1028A0006E64732E0A00426164205A2076616C7552
:1028B000650A004E6F2062696C696E6561722067FF
:1028C0007269640A0050574D3A2020253464005A3A
:1028D0005F53544F505F50494E005A5F5354455018
:1028E0005F50494E005A5F4D494E5F50494E005A65
:1028F0005F454E41424C455F50494E005A5F444946
:10290000525F50494E00595F53544F505F50494EEB
:1029100000595F535445505F50494E00595F4D492F
:102920004E5F50494E00595F454E41424C455F5005
:10293000494E00595F4449525F50494E00585F5319
:10294000544F505F50494E00585F535445505F50AC
:10295000494E00585F4D41585F50494E00585F4501
:102960004E41424C455F50494E00585F4449525FCA
:1029700050494E00534552564F335F50494E005315
:102980004552564F325F50494E00534552564F31D3
:102990005F50494E00534552564F305F50494E00EC
:1029A000534453530053445F4445544543545F508C
:1029B000494E0052414D50535F44395F50494E00DB
:1029C00052414D50535F44385F50494E0052414D83
:1029D00050535F4431305F50494E004D41583636B8
:1029E00037355F53535F50494E004C45445F504963
:1029F0004E004C43445F50494E535F5253004C438A
:102A0000445F50494E535F454E41424C45004C4354
:102A1000445F50494E535F4437004C43445F504934
:102A20004E535F4436004C43445F50494E535F441D
:102A300035004C43445F50494E535F4434004B498A
:102A40004C4C5F50494E004845415445525F424509
:102A5000445F50494E004845415445525F305F50F5
:102A6000494E0046414E5F50494E0045315F535438
:102A700045505F50494E0045315F454E41424C45FF
:102A80005F50494E0045315F4449525F50494E0006
:102A900045315F43535F50494E0045305F535445C5
:102AA000505F50494E0045305F454E41424C455FB6
:102AB00050494E0045305F4449525F50494E0045F1
:102AC0005F4D5558325F50494E00455F4D55583166
:102AD0005F50494E00455F4D5558305F50494E009C
:102AE000444F474C43445F53434B00444F474C4390
:102AF000445F4D4F53490042544E5F454E430042A0
:102B0000544E5F454E320042544E5F454E310042B6
:102B100045455045525F50494E004156525F535310
:102B20005F50494E004156525F53434B5F50494EF0
:102B3000004156525F4D4F53495F50494E00415638
:102B4000525F4D49534F5F50494E0054454D505FC1
:102B50004245445F50494E0054454D505F315F50EF
:102B6000494E0054454D505F305F50494E00464934
:102B70004C57494454485F50494E00545844300023
:102B8000525844300020202020434F4D0020202068
:102B90006E6F6E2D7374616E646172642050574D58
:102BA000206D6F646500202020636F6D7061726519
:102BB00020696E7465727275707420656E61626CE6
:102BC0006564002020206F766572666C6F772069DF
:102BD0006E7465727275707420656E61626C656486
:102BE000002020202054494D534B00423A20004100
:102BF0003A2000202020205443435200202020204F
:102C000043533A20002020202057474D3A200020EF
:102C100020202054494D45520020697320616C7377
:102C20006F207469656420746F2074686973207004
:102C3000696E0054494D45523143000A202E002050
:102C400020506F72743A2000202020416E616C6F1A
:102C50006720696E203D2025356C64003C756E75DB
:102C60007365642F756E6B6E6F776E3E004F757473
:102C7000707574203D2000496E70757420203D20D1
:102C80000070726F746563746564200020284125AC
:102C9000326429202000253364200050494E3A2018
:102CA00000446F6E652E0A0050756C73696E672064
:102CB000202000556E746F7563686564200053456D
:102CC00052564F206E6F74207365742075702E0AF3
:102CD000005761746368696E672070696E730A00DB
:102CE000656E6473746F70206D6F6E69746F72209F
:102CF00000204D393220580020496E76616C69649D
:102D00002065787472756465722000470048000081
:102D10000088008A008C00B300B400000098009A7C
:102D2000009C00A800AA00AC0028012A012C014444
:102D30000045006E00800081006F00B000B100709F
:102D400000900091007100A000A1007200200121FC
:102D5000017300802B00017B2B01016E2B3B006374
:102D60002B4300582B45004B2B44003E2B320131A6
:102D70002B3301252B34011A2B35010F2B2501078D
:102D80002B1F01FF2A2101F72A2301EB2A3301E03F
:102D90002A3401D52A2801CA2A2A01BF2A2C01B4C3
:102DA0002A1C01A62A18019A2A1A01902A2C0185A8
:102DB0002A2201772A1E016B2A2401632A0901565F
:102DC0002A0A01472A08013E2A2901322A17012628
:102DD0002A19011A2A1B010E2A1D01FE291101F2CE
:102DE000291001EA290D01DB294201422B3201356C
:102DF0002B3301CD290A01C0290801B32909012972
:102E00002B3401A5293101A029350195290B018A0F
:102E10002906017F29050174290401E32935016A86
:102E20002937015D29260153290201482936013D30
:102E300029020133293D01262938011C290E0111DF
:102E4000293C0106290E01FC283001EF283E01E54E
:102E5000281201DA282E01CF2812013F5A206F755F
:102E600074206F662072616E67652028003F5920CC
:102E70006F7574206F662072616E676520282D0063
:102E800020746F20003F58206F7574206F66207289
:102E9000616E676520282D0050726F6265204F6655
:102EA00066736574205800656E7175657565696E29
:102EB000672022006F6B00526573656E643A2000D4
:102EC00020573A00452025530042656420436F6F28
:102ED0006C696E672E2E2E00426564204865617411
:102EE000696E672E2E2E0023646566696E65204428
:102EF000454641554C545F004B6420004B6920000F
:102F00004B702000504944204175746F74756E6594
:102F10002066696E69736865642120507574207439
:102F20006865206C617374204B702C204B692061A4
:102F30006E64204B6420636F6E7374616E747320D3
:102F400066726F6D2062656C6F7720696E746F209A
:102F5000436F6E66696775726174696F6E2E680A79
:102F600000504944204175746F74756E6520666128
:102F7000696C6564212074696D656F75740A000A57
:102F800020436C617373696320504944200A002018
:102F90004B643A2000204B693A2000204B703A20C5
:102FA000002054753A2000204B753A2000206D61B6
:102FB000783A2000206D696E3A200020643A2000A3
:102FC00020626961733A2000504944204175746F52
:102FD00074756E652073746172740A0050494420E0
:102FE0004175746F74756E65206661696C656421E6
:102FF0002054656D706572617475726520746F6FB1
:1030000020686967680A00504944204175746F74EC
:10301000756E6500504944204175746F74756E6516
:10302000206661696C656421204261642065787462
:103030007275646572206E756D6265720A000000BB
:1030400000010000000100008000555555000000FF
:10305000400033333300AAAA2A004992240000001A
:103060002000C7711C0099991900D14517005555CA
:1030700015003BB11300244912001111110000008A
:1030800010000F0F0F00E3380E0043790D00CCCC79
:103090000C00C3300C00E8A20B0064210B00AAAAAC
:1030A0000A00703D0A009DD80900427B0900922465
:1030B0000900DCD3080088880800104208000000DE
:1030C0000800F0C107008787070075500700711CD2
:1030D00007003EEB0600A1BC06006990060066668C
:1030E0000600703E06006118060017F4050074D152
:1030F00005005BB00500B2900500627205005555F1
:10310000050078390500B81E0500050505004EECE0
:10311000040087D40400A1BD040090A704004992D4
:103120000400C17D0400EE690400C7560400444455
:1031300004005C3204000821040041100400000077
:1031400004003FF00300F8E0030026D20300C3C3ED
:103150000300CCB503003AA803000A9B0300388E95
:103160000300C08103009F750300D0690300505E17
:1031700003001D53030034480300913D0300333323
:10318000030016290300381F030097150300300CB5
:103190000300030303000BFA020049F10200BAE83E
:1031A00002005CE002002DD802002DD0020059C8B8
:1031B0000200B0C0020031B90200DAB10200AAAACE
:1031C0000200A0A30200BC9C0200FA9502005C8FE2
:1031D0000200DF88020082820200457C020027761E
:1031E000020027700200436A02007C640200D05E85
:1031F00002003F590200C8530200FFFDFCFAF8F636
:10320000F4F2F0EEECEAE9E7E5E3E1E0DEDCDAD95E
:10321000D7D5D4D2D0CFCDCBCAC8C7C5C3C2C0BF03
:10322000BDBCBAB9B7B6B4B3B2B0AFADACAAA9A879
:10323000A6A5A4A2A1A09E9D9C9A999897959493C7
:1032400092908F8E8D8B8A898887868483828180F5
:103250007F7E7D7B7A797877767574737271706F03
:103260006E6D6C6B6A696867666564636261605FF6
:103270005E5D5C5B5A5958585756555453525150DD
:10328000504F4E4D4C4B4A4A4948474646454443A9
:10329000424241403F3E3E3D3C3B3B3A3938383765
:1032A000363535343332323130302F2E2E2D2C2B13
:1032B0002B2A2929282727262525242323222121B3
:1032C00020201F1E1E1D1C1C1B1B1A191918181745
:1032D0001616151514131312121111100F0F0E0ECE
:1032E0000D0D0C0C0B0A0A0909080807070606054C
:1032F0000504040303020201000000000C43000067
:10330000DC420000F042000060C10000000000004C
:103310000000202D20496E76616C69642065787408
:103320007275646572206E756D62657220210A0087
:10333000544845524D414C2052554E415741590039
:10334000546865726D616C2052756E6177617900A9
:103350004572723A204D415854454D50004D4158E8
:1033600054454D5020747269676765726564004505
:1033700072723A204D494E54454D50004D494E54BD
:10338000454D5020747269676765726564000A0A6A
:103390000020205A5F4D494E3A002020595F4D4988
:1033A0004E3A002020585F4D41583A00202F00200F
:1033B00042403A0020403A003F2856296572626F29
:1033C0007365206C6576656C20696D706C617573D2
:1033D00069626C652028302D34292E0A00446576F8
:1033E000696174696F6E0025533A20257300466940
:1033F0006E6973686564210A003A207A3A200020D9
:103400006F662000476F696E6720746F3A2058001E
:1034100043570A00206469723A0020616E676C6548
:103420003A005374617274207261646975733A0072
:103430004D343820506F696E740025533A2025644E
:103440002F256400506F736974696F6E696E672011
:103450007468652070726F62652E2E2E0A003F4CD4
:10346000656773206F66206D6F76656D656E74207D
:10347000696D706C61757369626C652028302D31DF
:1034800035292E0A003F2028582C5929206F7574A1
:10349000206F6620626F756E64732E0A0050726F23
:1034A0006265206F7574206F6620626F756E64733D
:1034B000003F53616D706C652073697A65206E6F93
:1034C0007420706C61757369626C652028342D35C9
:1034D00030292E0A004D3438205A2D50726F626503
:1034E000205265706561746162696C6974792054F9
:1034F0006573740A005374616E646172642044657C
:1035000076696174696F6E3A20002052616E67655A
:103510003A2000205369676D613A20004D65616E65
:103520003A20004261636B004F6666004F6E004DAB
:103530006F74696F6E005374617274205072696E9B
:10354000740043616E63656C0043616E6E6F74203E
:10355000656E746572207375626469723A20000248
:103560002E2E00486F74656E6420746F6F20636F39
:103570006C640050726F6365656400536F667420FD
:10358000456E6473746F7073004520737465707357
:103590002F6D6D005A2053746570732F6D6D005937
:1035A0002053746570732F6D6D00582053746570CF
:1035B000732F6D6D0046696C616D656E74004661B8
:1035C000646520486569676874004C6576656C20A1
:1035D000426564004732380A473239003F00507272
:1035E000696E742041626F72746564004D323500FB
:1035F00050617573696E672E2E2E00454550524FEF
:103600004D2056657273696F6E204572726F72003D
:10361000454550524F4D20496E6465782045727281
:103620006F7200454550524F4D2043524320457222
:10363000726F720049676E6F726500496E697469D6
:10364000616C697A6520454550524F4D0050726952
:103650006E742066726F6D204D6564696100205A3A
:103660003A200020593A200042656420583A200050
:103670005072696E74205061757365640050726F8A
:1036800062696E67204661696C65640A0050726FFA
:1036900062696E67204661696C656400220A0055A4
:1036A0006E6B6E6F776E20636F6D6D616E643A2026
:1036B0002200536865657079204D696E69205265F6
:1036C0006164792E005072696E74696E672E2E2EB9
:1036D0000020453A00205A3A0020593A00457272BB
:1036E0003A207574663820666F6E74206E6F742091
:1036F000696E697469616C697A65642E00000C0FEB
:1037000000FE07022503BB017FFE08FE08FE050838
:103710000806000040F0C888889878100508080658
:103720000000C0F88888888888F80505050600012B
:103730002030F830200508080600002070F820200E
:103740002020E00509090600FF2070A8A8B8888895
:103750007020070505070001D86C366CD8050909EB
:103760000600FFF8A88888888888A8F8050A0A064D
:1037700000FE205050505088A8A88870030303060C
:10378000000340A040FFFFFFFFFFFFFFFFFFFFFF21
:10379000FFFFFFFFFFFFFFFFFFFFFF000000060529
:1037A000FF010707060200808080808000800303FD
:1037B00003060105A0A0A005060606000050F8506B
:1037C00050F8500509090600FF2070A8A07028A82D
:1037D0007020050707060000C8C81020409898050B
:1037E000070706000040A0A040A890680103030658
:1037F00002058080800309090601FF204040808087
:10380000804040200309090601FF8040402020201D
:1038100040408005070706000020A8702070A820FF
:103820000505050600012020F820200203030601FB
:10383000FFC04080050101060003F80202020601F4
:1038400000C0C00507070600000810102040408097
:10385000050707060000708898A8C8887003070746
:1038600006010040C040404040E005070706000058
:10387000708808102040F8050707060000F80810B7
:103880003008887005070706000010305090F810C7
:1038900010050707060000F880F008088870050783
:1038A00007060000304080F0888870050707060092
:1038B00000F8081010202020050707060000708877
:1038C0008870888870050707060000708888780867
:1038D0001060020505060100C0C000C0C002060657
:1038E0000601FFC0C000C04080030505060101209D
:1038F00040804020050303060002F800F803050598
:1039000006010180402040800507070600007088FE
:1039100010202000200507070600007088B8A8B80E
:103920008070050707060000708888F88888880579
:103930000707060000F04848704848F005070706EA
:10394000000070888080808870050707060000F0FE
:103950004848484848F0050707060000F88080F00E
:103960008080F8050707060000F88080F0808080DE
:103970000507070600007088808098887005070793
:10398000060000888888F8888888030707060100F1
:10399000E04040404040E0050707060000381010B6
:1039A000101090600507070600008890A0C0A09046
:1039B00088050707060000808080808080F8050762
:1039C0000706000088D8A8888888880507070600A9
:1039D000008888C8A89888880507070600007088AE
:1039E0008888888870050707060000F08888F080BE
:1039F000808005070706000070888888A890680501
:103A00000707060000F08888F0A0908805070706E1
:103A1000000070888070088870050707060000F8AD
:103A2000202020202020050707060000888888889D
:103A3000888870050707060000888888885050200D
:103A400005070706000088888888A8A8500507078A
:103A50000600008888502050888805070706000067
:103A600088885020202020050707060000F808104D
:103A7000204080F80309090601FFE08080808080F3
:103A80008080E005070706000080404020101008F5
:103A90000309090601FFE020202020202020E00566
:103AA00003030600052050880501010600FEF80307
:103AB0000303060105804020050505060000700887
:103AC0007888780507070600008080F0888888F0ED
:103AD0000505050600007080808870050707060050
:103AE0000008087888888878050505060000708831
:103AF000F08070050707060000304840E040404075
:103B00000507070600FE7088888878087005070793
:103B10000600008080F08888888803070706010077
:103B20004000C0404040E00409090601FE1000309A
:103B30001010101090600507070600008080889024
:103B4000E09088030707060100C04040404040E085
:103B5000050505060000D0A8A8A8A80505050600CB
:103B600000B0C88888880505050600007088888828
:103B7000700507070600FEF0888888F0808005073A
:103B8000070600FE7888888878080805050506007D
:103B900000B0C880808005050506000078807008A8
:103BA000F00507070600002020F820202018050552
:103BB00005060000888888986805050506000088C5
:103BC000888850200505050600008888A8A85005AB
:103BD000050506000088502050880507070600FEEE
:103BE00088888850204080050505060000F81020D0
:103BF00040F80309090601FF204040408040404052
:103C0000200109090602FF808080808080808080FA
:103C10000309090601FF80404040204040408005E4
:103C2000030306000248A890FF000021002400279B
:103C3000002A002D003000330001010000040107BC
:103C4000010A0100002200250028002B002E00316F
:103C500000340002010000050108010B01000020F2
:103C6000002300260029002C002F00320000010054
:103C700000030106010901050505050705080808F7
:103C800008020202020A0A080804040404010101ED
:103C900001010101010303030303030303040707F5
:103CA000070C0C0C0C0C0C0C0C0202020206060693
:103CB00006060606060B0B0B0B0B0B0B0B0102107B
:103CC0002020080810204010204080020102010836
:103CD00004020101020408102040808040201008E6
:103CE000040201800402018040201008040201083F
:103CF000040201010204081020408001020408109F
:103D000020408000000A0B02090C0D0E0807030476
:103D100001000000000000000000000000000000A2
:103D20000000000000000000000000000000001281
:103D30001110000000000000000000000000000062
:103D40000000000000000000004D6F766520257324
:103D50006D6D004D6F766520302E316D6D004D6FAD
:103D6000766520316D6D004D6F76652031306D6D5B
:103D7000004D6F76652041786973004578747275DF
:103D8000646572004D6F7665205A004D6F76652030
:103D900059004D6F766520580020520048617264CA
:103DA000636F6465642044656661756C7420536557
:103DB0007474696E6773204C6F616465640A003BBC
:103DC000200020204D3835312058005A2D50726F78
:103DD0006265204F66667365740020204D33303174
:103DE0002050005049442073657474696E67733ABB
:103DF0000020460020480020204D3134352053005B
:103E00004D6174657269616C2068656174757020BC
:103E1000706172616D65746572733A00202047327B
:103E200039205720490020204D34323020530041A2
:103E300075746F20426564204C6576656C696E67A9
:103E40003A0020204D323036205800486F6D6520F2
:103E50006F66667365743A00204A0020204D323048
:103E600035204200416476616E6365643A20423CCD
:103E70006D696E5F7365676D656E745F74696D659E
:103E80005F75733E20533C6D696E5F666565647255
:103E90006174653E20543C6D696E5F747261766535
:103EA0006C5F66656564726174653E204A3C6A7544
:103EB0006E635F6465763E0020540020204D3230F2
:103EC00034205000416363656C65726174696F6E84
:103ED0002028756E6974732F7332293A20503C7014
:103EE00072696E745F616363656C3E20523C7265FB
:103EF00074726163745F616363656C3E20543C74EB
:103F0000726176656C5F616363656C3E0020204D75
:103F10003230312058004D6178696D756D204163F4
:103F200063656C65726174696F6E2028756E697463
:103F3000732F7332293A0020450020204D32303350
:103F40002058004D6178696D756D206665656472F5
:103F5000617465732028756E6974732F73293A0034
:103F600053746570732070657220756E69743A00C1
:103F700020440020204D323030205300204469730B
:103F800061626C65640A0046696C616D656E7420DF
:103F900073657474696E67733A0020204D3134394B
:103FA0002043203B20556E69747320696E20436561
:103FB0006C736975730A0020286D6D2900202047F5
:103FC0003231202020203B20556E69747320696EA9
:103FD000206D6D000000FA430000FA430000A0418C
:103FE000000048420000C8420000C8420000C84328
:103FF0000000CD43F4010000F40100006400000063
:10400000881300004361703A0047322F4733206223
:10401000616420706172616D65746572730A00205D
:10402000436F756E7420583A004531006265640034
:104030002C2073797374656D2073746F7070656470
:1040400021204865617465725F49443A20004865E3
:104050006174696E67204661696C656400486561DA
:1040600074696E67206661696C65640038011401CB
:1040700011241FBECFEFD1E2DEBFCDBF00E00CBFE9
:1040800013E0A0E0B2E0E8ECF1E502E00BBF02C013
:1040900007900D92A432B107D9F725E1A4E2B3E06D
:1040A00001C01D92A234B207E1F710E2C7E3D0E2EB
:1040B00000E006C021970109802FFE010F942325FF
:1040C000C633D10780E00807A9F70F940C100D94B0
:1040D000D2280C9400002F923F924F925F926F92E1
:1040E0007F928F929F92AF92BF92CF92DF92EF9288
:1040F000FF920F931F93CF93DF93CDB7DEB7AD97AA
:104100000FB6F894DEBF0FBECDBF8DA720912E0352
:104110002CA321E020932E038091F9148D3409F40F
:10412000F0C2843511F40C94AC30873411F00C9447
:10413000D1302091F7143091F8142C31310509F465
:1041400089C094F42430310534F422303105B4F5BB
:1041500037FF28C0D2C224303105F1F125313105B5
:1041600011F40C94D330C9C22A32310509F49EC12E
:104170004CF42D31310509F47DC02E31310509F49F
:1041800098C0BBC22B35310509F40DC12C35310562
:1041900009F40EC12A35310509F0AFC210922D0382
:1041A0000C94D33080910706813011F00C94D330F9
:1041B0000E94A9B30E945C8D0C94D33080910706B5
:1041C000813011F00C94D3302230310509F080E0B9
:1041D0000F94D7050C94D33080E50E9490A78823D4
:1041E00029F00E9476D86B017C0103C0C12CD12C30
:1041F000760183E50E9490A7882361F00E940BA7B7
:1042000020E030E04AE754E40F948E1E0F94B1266C
:104210006B017C010E94FBC38091C813811105C012
:1042200060E08FE496E00E9408EC0F94B60FC60E93
:10423000D71EE81EF91E0F94B60FDC01CB018C19B6
:104240009D09AE09BF09B7FD02C00C94D3300E948E
:10425000983CF1CF8091420D8770873011F00C941B
:10426000F43060E08FE40E94B8A781110C94D33041
:104270000C94F4300F94B60F6093020E7093030EFB
:104280008093040E9093050E87E00E94658C811147
:104290000C94D3308091D114882311F40C942832DB
:1042A00060E08FE40E94B8A781110C94D3300C9485
:1042B00028322091341430913514409136145091A5
:1042C000371460915F027091600280916102909159
:1042D00062020F943E25AB01BC0188E50E9444B602
:1042E00069837A838B839C832091381430913914AD
:1042F00040913A1450913B146091630270916402B2
:1043000080916502909166020F943E25AB01BC013D
:1043100089E50E9444B66D837E838F839887BE01B2
:104320006B5F7F4FCE0101960E9425A5882311F473
:104330000C94D33080E00E9485360E94339061E077
:1043400085E40E94B8A721E0482FBE016B5F7F4F34
:10435000CE0101960E9432F26B017C019B01AC01FF
:104360000F943028811119C049815A816B817C8159
:1043700088E696E30E94603C4D815E816F8178857E
:1043800083E696E30E94603CB701A6018EE596E3C2
:104390000E94603C8AE00E9494390E941A900E9418
:1043A00040930C94D3308FE080932D030C94D33042
:1043B00019ED212E12E0312E06E3E02E0DE0F02E55
:1043C000AFE5B2E0B9A3A8A38CE6C82E84E1D82E4D
:1043D00000E010E0F10181911F010E9490A7882365
:1043E00009F44AC00E940BA72B013C01133049F08D
:1043F000D6012D913D914D915C910F943D252B015E
:104400003C01E8A1F9A12081318142815381C3019E
:10441000B2010F943D254B015C012DEB37E346E8DB
:1044200055EB0F949E2787FD0AC02DEB37E346E836
:1044300055E3C501B4010F94281E1816ECF413308F
:1044400051F440926B0250926C0260926D02709235
:104450006E0201E011C0A5019401D7016D917D911B
:104460008D919C910F943E25F70160837183828327
:104470009383812F0E94328C1F5FF4E0EF0EF11CBA
:1044800028A139A12C5F3F4F39A328A334E0C30EE4
:10449000D11C143009F09ECF002321F08BE692E06E
:1044A0000E94A4C70E9440930C94D33080910706C9
:1044B000813011F00C94D33089E40E9490A7E82E4B
:1044C000882321F00E9407A7082F01C000E08AE49A
:1044D0000E9490A7F82E882321F00E9407A7182F8A
:1044E00001C010E0EE2011F0033020F4FF2041F075
:1044F000133030F08BE796E00E94A6390C94D3304D
:1045000080E1EFE5F2E0A3E4BDE001900D928A9531
:10451000E1F7EE2019F1602F000F770B880B990B54
:104520000F942F1E20918F1430919014409191146C
:10453000509192140F948E1E209182063091830622
:1045400040918406509185060F943E256093430D5B
:104550007093440D8093450D9093460DFF2019F103
:10456000612F110F770B880B990B0F942F1E209141
:1045700093143091941440919514509196140F9483
:104580008E1E2091860630918706409188065091B4
:1045900089060F943E256093470D7093480D8093D4
:1045A000490D90934A0D60E080E50E94B8A78823EA
:1045B000C1F1EE20D1F020913414309135144091A6
:1045C0003614509137146091430D7091440D8091D1
:1045D000450D9091460D0F943D256093430D7093CA
:1045E000440D8093450D9093460DFF20D1F020910E
:1045F00038143091391440913A1450913B14609121
:10460000470D7091480D8091490D90914A0D0F947E
:104610003D256093470D7093480D8093490D90930D
:104620004A0D40E050E0BA0186E40E9444B66B01B6
:104630007C0120E030E0A9010F949E2718165CF45D
:1046400020E030E040E752E4C701B6010F9438267D
:104650006B017C0103C0C12CD12C760180908402B7
:1046600090908502A0908602B090870220E030E012
:10467000A901C701B6010F94281E882341F0C092FA
:104680008402D0928502E0928602F0928702009125
:10469000290210912A0284E690E090932A028093E6
:1046A0002902C0902102D0902202E0902302F090D3
:1046B000240280E090E0A0E8BFE380932102909381
:1046C0002202A0932302B09324020E945C8D809268
:1046D000840290928502A0928602B0928702109383
:1046E0002A0200932902C0922102D0922202E09273
:1046F0002302F09224020C94D3300E94C2F10C9455
:10470000D3308091F7149091F8148337910509F410
:1047100007C70CF0DBC08033910509F4A2C40CF08C
:1047200054C08931910509F4B2C21CF58431910558
:1047300009F44DC27CF48131910509F434C22CF4A2
:10474000029708F4D3C10C94A930429709F405C626
:104750000C94A9308631910509F46EC20CF468C23C
:104760008731910509F472C2489709F484C20C9408
:10477000A9308E31910509F40CC3ACF48B3191054D
:1047800009F4ACC20CF49CC28C31910509F4F9C255
:104790004D9711F00C94A930809156128E7F809322
:1047A00056120C94D3308032910509F453C30CF4A3
:1047B00094C38A32910509F43BC48B9711F00C9491
:1047C000A9300E94BEB40C94D3308836910509F408
:1047D00065C40CF041C08235910509F4B0C564F59B
:1047E0008C34910509F441C44CF48B34910511F0DB
:1047F0000C94A9300E9453940C94D3308D349105BD
:1048000009F448C48135910511F00C94A9300E9437
:104810003DD30E9477940E940BC40E94543968EEE5
:1048200073E080E090E00E94AB3860E08FE897E0B2
:104830000E9408EC0C94D3308435910509F48DC5A1
:104840000CF484C58535910509F4BDC58C359105F9
:1048500009F4DCC50C94A9308D36910509F445C4E2
:10486000ACF48A36910509F457C40CF442C48B3673
:10487000910509F48FC48C36910511F00C94A93080
:104880001092F41310921E020C94D33080379105CD
:1048900009F4E3C454F48E36910509F486C48F36C6
:1048A000910509F495C40C94A9308137910509F458
:1048B000DFC48237910511F00C94A9300E94D1F029
:1048C00085ED90E10F94290F0C94D3308C32A1E048
:1048D0009A0711F40C94992E0CF076C0883C91053F
:1048E00009F469C7D4F58937910509F4E8C6ECF4F1
:1048F0008637910509F4A6C634F48537910509F485
:1049000091C60C94A9308737910509F4D5C688372C
:10491000910511F00C94A93081E0809333048093C9
:1049200032040E94F5930C94D3308139910509F437
:10493000CDC634F48C38910509F4BCC40C94A9306C
:104940008B39910509F4D5C48E3B910511F00C9477
:10495000A9300E944EBA0C94D3308E3C910509F4D4
:10496000CCC7ACF48B3C910509F490C734F4893C76
:10497000910509F465C70C94A9308C3C910509F4A4
:10498000A4C78D3C910509F4AAC70C94A9308D3DAC
:10499000910511F40C94882D5CF4833D910509F484
:1049A000CAC78C3D910511F40C94612D0C94A9306B
:1049B000823E910511F40C94DE2D8232914011F467
:1049C0000C94292E0C94A9308C3AF1E09F0711F435
:1049D0000C94FF2FECF58139A1E09A0711F40C94A7
:1049E0007F2FC4F48E32E1E09E0711F40C94382F2F
:1049F00014F40C94B82E8F3221E0920711F40C9429
:104A00007C2F8039914011F00C94A9300E94FBC397
:104A10000C94D3308A39A1E09A0709F426C45CF4D7
:104A20008239914011F00C94A9300E9422A50E9475
:104A300040930C94D330843AF1E09F0711F40C9426
:104A4000852F853A914011F40C94882F0C94A9304D
:104A5000883F31E0930711F40C9464302CF5853FC6
:104A6000B1E09B0711F40C945E304CF4843F91400C
:104A700011F00C94A9300E945B610C94D330863FF6
:104A800021E0920711F40C946130873F914011F0BE
:104A90000C94A93061E083E50E94B8A791E08927D2
:104AA0000F94BC010C94D330803AA3E09A0709F428
:104AB00006C27CF48C30E2E09E0711F40C94743052
:104AC0008335934011F00C94A9300E9439BF0C94A7
:104AD000D330873E23E0920711F40C948130893E55
:104AE000934011F40C948F300C94A93080E50E940F
:104AF00090A7882329F00E9476D86B017C0103C01F
:104B0000C12CD12C760183E50E9490A7882361F007
:104B10000E940BA720E030E04AE754E40F948E1E79
:104B20000F94B1266B017C010E94FBC38091F514A8
:104B30009091F614009721F061E00E9498EC05C076
:104B400060E084E996E00E9408EC10912E0383E077
:104B500080932E0381E08093F413C114D104E10407
:104B6000F10431F00F94B60FC60ED71EE81EF91EE1
:104B70008091F413882311F40C942F32C114D104C2
:104B8000E104F10411F40C942B320F94B60FDC0104
:104B9000CB018C199D09AE09BF09B7FF02C00C9467
:104BA0002B320C942F328091760D84FF02C00C942E
:104BB00036328091780D87FF02C00C943632809196
:104BC000790D837011F00C9436320C94523280912E
:104BD000561283FF25C08FEB96E00E94A639809184
:104BE000561283FF17C08FE890E10E9437A28BE135
:104BF000EFE8F0E1DE01119601900D928A95E1F760
:104C000060E070E0CE0101960E94D151CE01019684
:104C10000E942BA480EB96E00E94A6390C94D3301E
:104C20000E94CC3980ED96E00E94A6390C94D330D6
:104C30000E94EA4E0C94D3300E942E4E8091561260
:104C4000877F8062809356120C94D330E091F514E4
:104C5000F091F6148081882329F0803209F41082C3
:104C60003196F8CF60E08091F5149091F6140E948F
:104C7000B8500C94D3300E943439882321F00E941C
:104C80003D4E0E9453940E9436F10C94D330809193
:104C9000561282FF03C08B7F8093561280916B1453
:104CA000813089F782E080936B140F94B60F609384
:104CB000320D7093330D8093340D9093350DE3CF07
:104CC0008091561283FD02C00C94D33083E50E947C
:104CD00090A781110C9460320C94D33083E40E942D
:104CE00042A7882319F184EE96E00E94A6398091AC
:104CF0003910882391F0BE016F5F7F4F86E390E10A
:104D00000E94FEA08E010F5F1F4FD8018D918D0173
:104D1000882339F00E949439F8CF8AED96E00E94FA
:104D2000A6398AE00E9494390C94D33080915612AF
:104D300082FF21C083EF96E00E94A6396091521253
:104D40007091531280915412909155124AE00E9432
:104D5000B03A8FE20E94943960914E1270914F12D6
:104D600080915012909151124AE00E94B03A0E94F4
:104D7000713C0C94D33085E097E00E94A6390C94E6
:104D8000D3308091F5149091F6140E9470500C94D9
:104D9000D3308091561283FD02C00C94D3300E9410
:104DA000ABF18091561283FD02C00C94D330409138
:104DB000F5145091F614BE01645E7F4F80E00E94AE
:104DC000B0CD8C01009711F40C94D3306C8D7D8D97
:104DD00019821C8222E0AC01CE0101960E9431A40E
:104DE000811102C0F12C14C0CE0101960E941ECD8B
:104DF0008823C1F361E0CE0101960E94A6A000972E
:104E000089F325EEFC0120831C820E942E9CF82E43
:104E1000CE0101960E942BA4B801FF2089F08EE2FA
:104E200097E00E94B5398AE00E949439109252129C
:104E30001092531210925412109255120C94D330B7
:104E400086E197E00E94B53982ED94E30E94A6398D
:104E50000C94D3308091561282FD0E94FBC3809146
:104E6000561283FD02C00C94D33060E080E50E94AE
:104E7000B8A7182F682F8091F5149091F6140E940E
:104E8000B85083E50E9490A7882381F00E94D3A6A2
:104E9000AB01BC01409352125093531260935412D1
:104EA0007093551286E390E10E94219E0E943D4E30
:104EB00011110C94D3300E9453940C94D330209150
:104EC000F5143091F6149091561292609093561208
:104ED000C9010E9470500C94D3300E9404947B014D
:104EE0008C0120E831E541E050E00F947E24C901B7
:104EF0006DE671E00F94FB244B015C01C801B70122
:104F000020E13EE040E050E00F947E24CA01B90168
:104F100028E130E040E050E00F947E24762E672EAA
:104F2000C62ED72EBCE32B2E312C412C512CC80180
:104F3000B701A20191010F947E24F62EE72ECA013B
:104F4000B901A20191010F947E24CB018E010F5F64
:104F50001F4F8114910499F0EF92FF927F936F930A
:104F60006F927F92BF92AF929F928F928CE397E065
:104F70009F938F931F930F930F94C01D13C0A11481
:104F8000B104B1F0EF92FF927F936F936F927F9293
:104F9000BF92AF9280E497E09F938F931F930F93FC
:104FA0000F94C01D0FB6F894DEBF0FBECDBF30C04A
:104FB000CD2879F0EF92FF927F936F936F927F925B
:104FC00084E497E09F938F931F930F930F94C01DDA
:104FD000E9CF892B69F0EF92FF927F936F9388E47A
:104FE00097E09F938F931F930F930F94C01DDACF79
:104FF000EF92FF928CE497E09F938F931F930F9310
:105000000F94C01D0F900F900F900F900F900F9066
:1050100060E0C8010E9498EC0E94CC39B80180E59C
:1050200097E00E94B5398AE00E9494390C94D330FD
:105030006DE070E080E50E949DA78C0197FF02C0A3
:105040000C94D330E82E60E089E40E94B8A7811167
:105050000C947132802F0E940F398111CCC50C94B1
:1050600071320E9486D80C94D33080916B148130B9
:1050700011F00C94D33082E080936B140F94B60F30
:105080006093320D7093330D8093340D9093350DF2
:105090000C94D3300E9477940C94D3308091770C89
:1050A00083FF02C00C94D3300E945AB487FF02C021
:1050B0000C94D33089E40E9490A7882311F40C94B7
:1050C000A8320E94E3A690E08330910514F082E0BC
:1050D00090E026E0289FF001299FF00D1124E95669
:1050E000FB4E808191810C94B2320E9445BC0C949D
:1050F000D3300E945AB4182F87FF02C00C94D830C6
:1051000084EB9EE20E94A639812F0E9496D08AE00D
:105110000E9494390C94D83060E080E50E94ACA7DE
:1051200081110C94D33081E40E9442A7882329F096
:105130006091B306062F10E002C00FEF10E089E483
:105140000E9490A7882399F00E94E3A690E0833004
:10515000910514F082E090E026E0289FF001299F5D
:10516000F00D1124E956FB4E0481158108C083E53A
:105170000E9490A7882319F00E94D3A68B01B80142
:105180000F3F110519F010F06FEF70E06093B30658
:105190000C94D33060E080E50E94ACA781110C94A0
:1051A000D3301092B3060C94D3308EE40E9490A7B3
:1051B000882311F40C94D3300E94D3A66093FE0D83
:1051C0007093FF0D8093000E9093010E0C94D330DA
:1051D00083E50E9442A7882331F060E083E50E94C6
:1051E000ACA78093770C0E94CC3983E797E00E94AC
:1051F000A6398091770C882369F1AEE2EA2EABE004
:10520000FA2E00E010E020E08091770C90E0A0E022
:10521000B0E0002E04C0B695A795979587950A949F
:10522000D2F780FF0EC0DD24D394D20E222319F0D2
:105230008CE20E949439F701859194910E94A639DD
:105240002D2D0F5F1F4F32E0E30EF11C05301105CD
:10525000D9F667CD8FE697E062CD41E060E070E07F
:105260008AE797E00E94D0399EC70E94EA389BC720
:1052700083E50E9490A7882371F00E94E3A6282F5F
:1052800030E02D3331051CF4809300028CC78CE391
:105290008093000288C70E94CC394091000250E000
:1052A00060E070E088E897E00E941D3B8AE00E9481
:1052B000943979C78091770C83FD75C789E40E9482
:1052C00090A7882311F40C94BB320E94E3A690E0CF
:1052D0008330910514F082E090E026E0289FF001F1
:1052E000299FF00D1124E956FB4E628173810C94C5
:1052F000C53283E50E9490A7882309F454C70E9411
:10530000E3A6182F90E0CD970CF01CE31093280330
:105310000F94B60F6B017C01212F30E0A8EEB3E0B3
:105320000F94D224C60ED71EE81EF91EC092240385
:10533000D0922503E0922603F092270334C7809190
:105340002D038F7D806180932D032DC780912D03C8
:105350008F7E806280932D0326C783E50E9490A7ED
:105360008823E9F00F94B60F6093020E7093030E3A
:105370008093040E9093050E0E940BA720E030E06E
:105380004AE754E40F948E1E0F94B12660930102F5
:1053900070930202809303029093040204C78091E9
:1053A000760D84FF02C00C94D8328091780D87FF6F
:1053B00002C00C94D8328091790D837011F00C9456
:1053C000D8320C94093383E50E9442A7882309F45C
:1053D000EAC60F94B60F6093020E7093030E80938B
:1053E000040E9093050E0E940BA720E030E04AE7E0
:1053F00054E40F948E1E0F94B1266093290370938A
:105400002A0380932B0390932C03CDC60E945AB499
:1054100087FDC9C69091760D94FD04C09091780DDA
:1054200097FF0AC0E9EDCE2EE2E0DE2EF8E7EF2E80
:10543000FCE0FF2E10E009C09091790D937091F778
:10544000682F81E00E9483B4AEC6D6018D916D01B4
:105450000E9490A7882309F459C0133009F04FC067
:105460000E940BA74B015C0120E030E040EA51E4D0
:105470000F94281E87FF3AC0A50194016091980CF3
:105480007091990C80919A0C90919B0C0F943826F6
:105490002B013C019B01AC016091A80C7091A90CFF
:1054A0008091AA0C9091AB0C0F948E1E6093A80C67
:1054B0007093A90C8093AA0C9093AB0C6091A706F3
:1054C0007091A8068091A9069091AA060F942D1EAE
:1054D000A30192010F948E1E0F94B1266093A7062C
:1054E0007093A8068093A9069093AA068092980CC0
:1054F0009092990CA0929A0CB0929B0C07C00E94BB
:105500000BA7F701648B758B868B978B1F5FF4E07D
:10551000EF0EF11C143009F098CF0E9410C343C65F
:105520008BEE98E00E94A63960E08BED98E00F9436
:10553000FA0A60E086EC98E00F94FA0A61E086E4EB
:1055400096E30F94FA0A61E08BEB98E00F94FA0A65
:1055500061E08BEA98E00F94FA0A60E082EA98E052
:105560000F94FA0A61E088E998E00F94FA0A61E082
:105570008EE898E00F94FA0A60E087E898E00F94CC
:10558000FA0A61E08FE798E00F94FA0A61E081E798
:1055900098E00F94FA0A60E083E698E00F94FA0A24
:1055A00060E084E598E00F94FA0A60E086E498E011
:1055B0000F94FA0A60E080E398E00F94FA0A60E042
:1055C0008FE198E00F94FA0A60E080E198E00F9490
:1055D000FA0A61E089E098E00F94FA0A60E084EF4B
:1055E00097E00F94FA0A60E086EE97E00F94FA0ACB
:1055F00061E083ED97E00F94FA0A60E086EC97E0B3
:105600000F94FA0A61E081EC97E00F94FA0A61E0E6
:1056100084EB97E00F94FA0A60E080EA97E00F9439
:10562000FA0AC1C58091F5149091F614009709F417
:105630002ACBDC012C91222309F425CB60E00E94C7
:1056400098ECB1C50091F5141091F61494E0F12C8A
:1056500040E0915021F1F8018081282F2B7F2134E7
:1056600021F421812133D9F407C08035C1F481812F
:1056700080538A3048F013C0813421F0853421F4FE
:1056800041E002C0FF24F39498012E5F3F4F89014F
:105690002F5F3F4FF80180818032C9F3DACF41118B
:1056A0000E94CC39FF2021F082EC99E00E94A639BB
:1056B000C8010E94773C77C50E94D59374C51092AB
:1056C0003304109232040E94F5936DC560E070E0DF
:1056D00083E50E949DA7833038F00E94C83986EC8C
:1056E00099E00E94A6395FC58C01112788E40E94C9
:1056F00090A78823E1F00E9407A78A3A910544F019
:105700000E9407A78530914034F40E9407A705C086
:105710008AEA90E002C084E091E026E0209FF00158
:10572000219FF00D1124E956FB4E9183808382E482
:105730000E9490A78823E1F00E9407A78B3F9F4F0C
:1057400044F00E9407A78437910534F40E9407A70C
:1057500005C08BEF9FEF02C083E790E026E0209F1B
:10576000F001219FF00D1124E956FB4E93838283B3
:1057700086E40E9490A7882309F415C50E9407A714
:1057800097FD09C00E9407A78F3F910509F034F4E7
:105790000E9407A705C080E090E002C08FEF90E074
:1057A00026E0209FF001219FF00D1124E956FB4EC9
:1057B00095838483F8C40E945AB4182F87FDF3C4DC
:1057C0000091D61484E40E9490A7882309F424C78A
:1057D0000E940BA76B017C0120E030E0A9010F942F
:1057E000281E882339F134E01302F0011124EE520F
:1057F000FB4EC082D182E282F38220E030E0A90138
:105800006091D2147091D3148091D4149091D514D6
:105810000F94281E81110CC080E090E0A0EEBFE341
:105820008093D2149093D314A093D414B093D5142E
:1058300001E0F2C680E08093D6140E9480C1B3C418
:105840000E945AB487FDAFC469EDE62E62E0F62EE1
:1058500008E71CE078E8C72E7CE0D72ED7018D91B1
:105860007D010E9442A7882359F00E940BA70F9444
:10587000B126F80160837183828393830E94C9C239
:105880000C5F1F4FC016D10649F78DC40E945AB451
:1058900087FD89C459EDE52E52E0F52E08E71CE09E
:1058A000D7018D917D010E9442A7882339F00E9483
:1058B0000BA7F80164A375A386A397A30C5F1F4FE2
:1058C000FCE008381F0761F76EC48091770D87FDF3
:1058D000A8C68091780D8E7009F0A3C6E8C68091A5
:1058E000760D81FD0CC78091770D81FD08C78091F1
:1058F000780D8C7009F003C756C446E3E42E44E0EB
:10590000F42E10E088E5810F0E9442A7882359F009
:105910000E940BA7D7016D937D938D939C93139752
:10592000812F0E94328C1F5FB4E0EB0EF11C13300C
:1059300049F70C94522240906C1450906D14609072
:105940006E1470906F1420913F023091400240918C
:10595000410250914202C301B2010F943E2568A357
:1059600079A38AA39BA38090701490907114A09047
:105970007214B0907314209143023091440240910C
:10598000450250914602C501B4010F943E256DA316
:105990007EA38FA398A7C0907414D0907514E09044
:1059A0007614F0907714209147023091480240918C
:1059B000490250914A02C701B6010F943E2569A7DA
:1059C0007AA78BA79CA720914B0230914C02409163
:1059D0004D0250914E02C301B2010F943E252B019E
:1059E0003C0120914F023091500240915102509160
:1059F0005202C501B4010F943E254B015C01209178
:105A00005302309154024091550250915602C70101
:105A1000B6010F943E256B017C010E94CC3987E2D0
:105A20009AE00E94A63983E50E9442A7882321F0CC
:105A30000E94F7A680933D0280913D02882319F0D1
:105A40008EEC96E202C087EE98E00E94A6398FE1C4
:105A50009AE00E94A63948A159A16AA17BA183E1DD
:105A60009FE30E94603C4DA15EA16FA178A58FE8E5
:105A70009DE30E94603C49A55AA56BA57CA588E8DA
:105A80009DE30E94603C85EC94E20E94A63987E188
:105A90009AE00E94A639B301A20183E19FE30E942C
:105AA000603CB501A4018FE89DE30E94603CB70112
:105AB000A60188E89DE30E94603C8AE00E94943938
:105AC00072C383E50E9490A7882331F00E9407A744
:105AD00090932A02809329028091760D9091770D00
